{
  "contractName": "ToDo",
  "abi": [
    {
      "inputs": [
        {
          "internalType": "string",
          "name": "_content",
          "type": "string"
        },
        {
          "internalType": "string",
          "name": "_author",
          "type": "string"
        }
      ],
      "name": "createTask",
      "outputs": [],
      "stateMutability": "nonpayable",
      "type": "function"
    },
    {
      "inputs": [
        {
          "internalType": "uint256",
          "name": "_id",
          "type": "uint256"
        }
      ],
      "name": "getTask",
      "outputs": [
        {
          "internalType": "uint256",
          "name": "",
          "type": "uint256"
        },
        {
          "internalType": "uint256",
          "name": "",
          "type": "uint256"
        },
        {
          "internalType": "string",
          "name": "",
          "type": "string"
        },
        {
          "internalType": "string",
          "name": "",
          "type": "string"
        },
        {
          "internalType": "bool",
          "name": "",
          "type": "bool"
        }
      ],
      "stateMutability": "view",
      "type": "function",
      "constant": true
    },
    {
      "inputs": [],
      "name": "getTasks",
      "outputs": [
        {
          "components": [
            {
              "internalType": "uint256",
              "name": "id",
              "type": "uint256"
            },
            {
              "internalType": "uint256",
              "name": "date",
              "type": "uint256"
            },
            {
              "internalType": "string",
              "name": "content",
              "type": "string"
            },
            {
              "internalType": "string",
              "name": "author",
              "type": "string"
            },
            {
              "internalType": "bool",
              "name": "done",
              "type": "bool"
            }
          ],
          "internalType": "struct ToDo.Task[]",
          "name": "",
          "type": "tuple[]"
        }
      ],
      "stateMutability": "view",
      "type": "function",
      "constant": true
    },
    {
      "inputs": [
        {
          "internalType": "uint256",
          "name": "_id",
          "type": "uint256"
        },
        {
          "internalType": "bool",
          "name": "_done",
          "type": "bool"
        }
      ],
      "name": "toggleTask",
      "outputs": [],
      "stateMutability": "nonpayable",
      "type": "function"
    }
  ],
  "bytecode": "0x608060405234801561001057600080fd5b50610c36806100206000396000f3fe608060405234801561001057600080fd5b506004361061004c5760003560e01c806304a87e38146100515780631d65e77e1461006f578063292a4585146100a35780634cad7917146100bf575b600080fd5b6100596100db565b60405161006691906107ff565b60405180910390f35b61008960048036038101906100849190610861565b61028d565b60405161009a9594939291906108f6565b60405180910390f35b6100bd60048036038101906100b89190610a8c565b610441565b005b6100d960048036038101906100d49190610b30565b61050f565b005b60606000805480602002602001604051908101604052809291908181526020016000905b8282101561028457838290600052602060002090600502016040518060a0016040529081600082015481526020016001820154815260200160028201805461014690610b9f565b80601f016020809104026020016040519081016040528092919081815260200182805461017290610b9f565b80156101bf5780601f10610194576101008083540402835291602001916101bf565b820191906000526020600020905b8154815290600101906020018083116101a257829003601f168201915b505050505081526020016003820180546101d890610b9f565b80601f016020809104026020016040519081016040528092919081815260200182805461020490610b9f565b80156102515780601f1061022657610100808354040283529160200191610251565b820191906000526020600020905b81548152906001019060200180831161023457829003601f168201915b505050505081526020016004820160009054906101000a900460ff161515151581525050815260200190600101906100ff565b50505050905090565b600080606080600080600087815481106102aa576102a9610bd1565b5b90600052602060002090600502016040518060a001604052908160008201548152602001600182015481526020016002820180546102e790610b9f565b80601f016020809104026020016040519081016040528092919081815260200182805461031390610b9f565b80156103605780601f1061033557610100808354040283529160200191610360565b820191906000526020600020905b81548152906001019060200180831161034357829003601f168201915b5050505050815260200160038201805461037990610b9f565b80601f01602080910402602001604051908101604052809291908181526020018280546103a590610b9f565b80156103f25780601f106103c7576101008083540402835291602001916103f2565b820191906000526020600020905b8154815290600101906020018083116103d557829003601f168201915b505050505081526020016004820160009054906101000a900460ff1615151515815250509050868160200151826040015183606001518460800151955095509550955095505091939590929450565b60006040518060a001604052806000805490508152602001428152602001848152602001838152602001600015158152509080600181540180825580915050600190039060005260206000209060050201600090919091909150600082015181600001556020820151816001015560408201518160020190805190602001906104cb929190610550565b5060608201518160030190805190602001906104e8929190610550565b5060808201518160040160006101000a81548160ff02191690831515021790555050505050565b806000838154811061052457610523610bd1565b5b906000526020600020906005020160040160006101000a81548160ff0219169083151502179055505050565b82805461055c90610b9f565b90600052602060002090601f01602090048101928261057e57600085556105c5565b82601f1061059757805160ff19168380011785556105c5565b828001600101855582156105c5579182015b828111156105c45782518255916020019190600101906105a9565b5b5090506105d291906105d6565b5090565b5b808211156105ef5760008160009055506001016105d7565b5090565b600081519050919050565b600082825260208201905092915050565b6000819050602082019050919050565b6000819050919050565b6106328161061f565b82525050565b600081519050919050565b600082825260208201905092915050565b60005b83811015610672578082015181840152602081019050610657565b83811115610681576000848401525b50505050565b6000601f19601f8301169050919050565b60006106a382610638565b6106ad8185610643565b93506106bd818560208601610654565b6106c681610687565b840191505092915050565b60008115159050919050565b6106e6816106d1565b82525050565b600060a0830160008301516107046000860182610629565b5060208301516107176020860182610629565b506040830151848203604086015261072f8282610698565b915050606083015184820360608601526107498282610698565b915050608083015161075e60808601826106dd565b508091505092915050565b600061077583836106ec565b905092915050565b6000602082019050919050565b6000610795826105f3565b61079f81856105fe565b9350836020820285016107b18561060f565b8060005b858110156107ed57848403895281516107ce8582610769565b94506107d98361077d565b925060208a019950506001810190506107b5565b50829750879550505050505092915050565b60006020820190508181036000830152610819818461078a565b905092915050565b6000604051905090565b600080fd5b600080fd5b61083e8161061f565b811461084957600080fd5b50565b60008135905061085b81610835565b92915050565b6000602082840312156108775761087661082b565b5b60006108858482850161084c565b91505092915050565b6108978161061f565b82525050565b600082825260208201905092915050565b60006108b982610638565b6108c3818561089d565b93506108d3818560208601610654565b6108dc81610687565b840191505092915050565b6108f0816106d1565b82525050565b600060a08201905061090b600083018861088e565b610918602083018761088e565b818103604083015261092a81866108ae565b9050818103606083015261093e81856108ae565b905061094d60808301846108e7565b9695505050505050565b600080fd5b600080fd5b7f4e487b7100000000000000000000000000000000000000000000000000000000600052604160045260246000fd5b61099982610687565b810181811067ffffffffffffffff821117156109b8576109b7610961565b5b80604052505050565b60006109cb610821565b90506109d78282610990565b919050565b600067ffffffffffffffff8211156109f7576109f6610961565b5b610a0082610687565b9050602081019050919050565b82818337600083830152505050565b6000610a2f610a2a846109dc565b6109c1565b905082815260208101848484011115610a4b57610a4a61095c565b5b610a56848285610a0d565b509392505050565b600082601f830112610a7357610a72610957565b5b8135610a83848260208601610a1c565b91505092915050565b60008060408385031215610aa357610aa261082b565b5b600083013567ffffffffffffffff811115610ac157610ac0610830565b5b610acd85828601610a5e565b925050602083013567ffffffffffffffff811115610aee57610aed610830565b5b610afa85828601610a5e565b9150509250929050565b610b0d816106d1565b8114610b1857600080fd5b50565b600081359050610b2a81610b04565b92915050565b60008060408385031215610b4757610b4661082b565b5b6000610b558582860161084c565b9250506020610b6685828601610b1b565b9150509250929050565b7f4e487b7100000000000000000000000000000000000000000000000000000000600052602260045260246000fd5b60006002820490506001821680610bb757607f821691505b60208210811415610bcb57610bca610b70565b5b50919050565b7f4e487b7100000000000000000000000000000000000000000000000000000000600052603260045260246000fdfea2646970667358221220349fb4d7f4a67957a14942e56fdb51c628a6dd8aa91f6691b593b16b3502e80f64736f6c634300080a0033",
  "immutableReferences": {},
  "source": "// SPDX-License-Identifier: MIT\npragma solidity >=0.4.22 <0.9.0;\n\ncontract ToDo {\n  struct Task {\n    uint id;\n    uint date;\n    string content;\n    string author;\n    bool done;\n  }\n\n  Task[] tasks;\n\n  function createTask(string memory _content, string memory _author) public {\n    tasks.push(Task(tasks.length, block.timestamp, _content, _author, false));\n  }\n\n  function getTask(uint _id) public view returns (uint, uint, string memory, string memory, bool) {\n    Task memory _task = tasks[_id];\n    return (_id, _task.date, _task.content, _task.author, _task.done);\n  }\n\n  function getTasks() public view returns (Task[] memory) {\n    return tasks;\n  }\n\n  function toggleTask(uint _id, bool _done) public {\n    tasks[_id].done = _done;\n  }\n}\n",
  "sourcePath": "/Users/muhammad797/Work/Experiment/Blockchain/Todo/contracts/ToDo.sol",
  "compiler": {
    "name": "solc",
    "version": "0.8.10+commit.fc410830.Emscripten.clang"
  },
  "schemaVersion": "3.4.3",
  "updatedAt": "2022-01-06T20:25:57.722Z",
  "networkType": "ethereum",
  "devdoc": {
    "kind": "dev",
    "methods": {},
    "version": 1
  },
  "userdoc": {
    "kind": "user",
    "methods": {},
    "version": 1
  }
}