{
  "contractName": "ToDo",
  "abi": [
    {
      "inputs": [],
      "stateMutability": "nonpayable",
      "type": "constructor"
    },
    {
      "anonymous": false,
      "inputs": [
        {
          "indexed": false,
          "internalType": "uint256",
          "name": "",
          "type": "uint256"
        },
        {
          "indexed": false,
          "internalType": "uint256",
          "name": "",
          "type": "uint256"
        },
        {
          "indexed": false,
          "internalType": "string",
          "name": "",
          "type": "string"
        },
        {
          "indexed": false,
          "internalType": "string",
          "name": "",
          "type": "string"
        },
        {
          "indexed": false,
          "internalType": "bool",
          "name": "",
          "type": "bool"
        }
      ],
      "name": "TaskCreated",
      "type": "event"
    },
    {
      "inputs": [
        {
          "internalType": "string",
          "name": "_content",
          "type": "string"
        },
        {
          "internalType": "string",
          "name": "_author",
          "type": "string"
        }
      ],
      "name": "createTask",
      "outputs": [],
      "stateMutability": "nonpayable",
      "type": "function"
    },
    {
      "inputs": [
        {
          "internalType": "uint256",
          "name": "_id",
          "type": "uint256"
        }
      ],
      "name": "getTask",
      "outputs": [
        {
          "internalType": "uint256",
          "name": "",
          "type": "uint256"
        },
        {
          "internalType": "uint256",
          "name": "",
          "type": "uint256"
        },
        {
          "internalType": "string",
          "name": "",
          "type": "string"
        },
        {
          "internalType": "string",
          "name": "",
          "type": "string"
        },
        {
          "internalType": "bool",
          "name": "",
          "type": "bool"
        }
      ],
      "stateMutability": "view",
      "type": "function",
      "constant": true
    },
    {
      "inputs": [],
      "name": "getTaskIds",
      "outputs": [
        {
          "internalType": "uint256[]",
          "name": "",
          "type": "uint256[]"
        }
      ],
      "stateMutability": "view",
      "type": "function",
      "constant": true
    },
    {
      "inputs": [
        {
          "internalType": "uint256",
          "name": "_id",
          "type": "uint256"
        },
        {
          "internalType": "bool",
          "name": "_done",
          "type": "bool"
        }
      ],
      "name": "toggleTask",
      "outputs": [],
      "stateMutability": "nonpayable",
      "type": "function"
    }
  ],
  "bytecode": "0x608060405234801561001057600080fd5b5060008081905550610b77806100276000396000f3fe608060405234801561001057600080fd5b506004361061004c5760003560e01c80631d65e77e14610051578063292a4585146100855780634cad7917146100a1578063bcd14805146100bd575b600080fd5b61006b6004803603810190610066919061058c565b6100db565b60405161007c95949392919061067c565b60405180910390f35b61009f600480360381019061009a9190610812565b6102dc565b005b6100bb60048036038101906100b691906108b6565b610415565b005b6100c5610447565b6040516100d291906109b4565b60405180910390f35b600080606080600085600060026000838152602001908152602001600020600001541161013d576040517f08c379a000000000000000000000000000000000000000000000000000000000815260040161013490610a48565b60405180910390fd5b6000600260008981526020019081526020016000206040518060a0016040529081600082015481526020016001820154815260200160028201805461018190610a97565b80601f01602080910402602001604051908101604052809291908181526020018280546101ad90610a97565b80156101fa5780601f106101cf576101008083540402835291602001916101fa565b820191906000526020600020905b8154815290600101906020018083116101dd57829003601f168201915b5050505050815260200160038201805461021390610a97565b80601f016020809104026020016040519081016040528092919081815260200182805461023f90610a97565b801561028c5780601f106102615761010080835404028352916020019161028c565b820191906000526020600020905b81548152906001019060200180831161026f57829003601f168201915b505050505081526020016004820160009054906101000a900460ff161515151581525050905087816020015182604001518360600151846080015196509650965096509650505091939590929450565b6000808154809291906102ee90610af8565b91905055506040518060a0016040528060005481526020014281526020018381526020018281526020016000151581525060026000805481526020019081526020016000206000820151816000015560208201518160010155604082015181600201908051906020019061036392919061049f565b50606082015181600301908051906020019061038092919061049f565b5060808201518160040160006101000a81548160ff021916908315150217905550905050600160005490806001815401808255809150506001900390600052602060002001600090919091909150557fb322bdd3250d405f7845d27fa1f0753f8f7e18e40886bc254b89005c3e9c0324600054428484600060405161040995949392919061067c565b60405180910390a15050565b806002600084815260200190815260200160002060040160006101000a81548160ff0219169083151502179055505050565b6060600180548060200260200160405190810160405280929190818152602001828054801561049557602002820191906000526020600020905b815481526020019060010190808311610481575b5050505050905090565b8280546104ab90610a97565b90600052602060002090601f0160209004810192826104cd5760008555610514565b82601f106104e657805160ff1916838001178555610514565b82800160010185558215610514579182015b828111156105135782518255916020019190600101906104f8565b5b5090506105219190610525565b5090565b5b8082111561053e576000816000905550600101610526565b5090565b6000604051905090565b600080fd5b600080fd5b6000819050919050565b61056981610556565b811461057457600080fd5b50565b60008135905061058681610560565b92915050565b6000602082840312156105a2576105a161054c565b5b60006105b084828501610577565b91505092915050565b6105c281610556565b82525050565b600081519050919050565b600082825260208201905092915050565b60005b838110156106025780820151818401526020810190506105e7565b83811115610611576000848401525b50505050565b6000601f19601f8301169050919050565b6000610633826105c8565b61063d81856105d3565b935061064d8185602086016105e4565b61065681610617565b840191505092915050565b60008115159050919050565b61067681610661565b82525050565b600060a08201905061069160008301886105b9565b61069e60208301876105b9565b81810360408301526106b08186610628565b905081810360608301526106c48185610628565b90506106d3608083018461066d565b9695505050505050565b600080fd5b600080fd5b7f4e487b7100000000000000000000000000000000000000000000000000000000600052604160045260246000fd5b61071f82610617565b810181811067ffffffffffffffff8211171561073e5761073d6106e7565b5b80604052505050565b6000610751610542565b905061075d8282610716565b919050565b600067ffffffffffffffff82111561077d5761077c6106e7565b5b61078682610617565b9050602081019050919050565b82818337600083830152505050565b60006107b56107b084610762565b610747565b9050828152602081018484840111156107d1576107d06106e2565b5b6107dc848285610793565b509392505050565b600082601f8301126107f9576107f86106dd565b5b81356108098482602086016107a2565b91505092915050565b600080604083850312156108295761082861054c565b5b600083013567ffffffffffffffff81111561084757610846610551565b5b610853858286016107e4565b925050602083013567ffffffffffffffff81111561087457610873610551565b5b610880858286016107e4565b9150509250929050565b61089381610661565b811461089e57600080fd5b50565b6000813590506108b08161088a565b92915050565b600080604083850312156108cd576108cc61054c565b5b60006108db85828601610577565b92505060206108ec858286016108a1565b9150509250929050565b600081519050919050565b600082825260208201905092915050565b6000819050602082019050919050565b61092b81610556565b82525050565b600061093d8383610922565b60208301905092915050565b6000602082019050919050565b6000610961826108f6565b61096b8185610901565b935061097683610912565b8060005b838110156109a757815161098e8882610931565b975061099983610949565b92505060018101905061097a565b5085935050505092915050565b600060208201905081810360008301526109ce8184610956565b905092915050565b7f496e76616c6964207461736b2049442e20506c6561736520747279206167616960008201527f6e00000000000000000000000000000000000000000000000000000000000000602082015250565b6000610a326021836105d3565b9150610a3d826109d6565b604082019050919050565b60006020820190508181036000830152610a6181610a25565b9050919050565b7f4e487b7100000000000000000000000000000000000000000000000000000000600052602260045260246000fd5b60006002820490506001821680610aaf57607f821691505b60208210811415610ac357610ac2610a68565b5b50919050565b7f4e487b7100000000000000000000000000000000000000000000000000000000600052601160045260246000fd5b6000610b0382610556565b91507fffffffffffffffffffffffffffffffffffffffffffffffffffffffffffffffff821415610b3657610b35610ac9565b5b60018201905091905056fea2646970667358221220989cb64d228dcaa60acb77bb4b9e5acac5d0c0adf52017ff5443008b4f111f9c64736f6c634300080a0033",
  "immutableReferences": {},
  "source": "// SPDX-License-Identifier: MIT\npragma solidity >=0.4.22 <0.9.0;\n\ncontract ToDo {\n    struct Task {\n        uint256 id;\n        uint256 date;\n        string content;\n        string author;\n        bool done;\n    }\n\n    uint256 length;\n    uint256[] taskIds;\n    mapping(uint256 => Task) tasks;\n\n    event TaskCreated(uint256, uint256, string, string, bool);\n\n    constructor() {\n        length = 0;\n    }\n\n    function createTask(string memory _content, string memory _author) public {\n        length++;\n        tasks[length] = Task(length, block.timestamp, _content, _author, false);\n        taskIds.push(length);\n        emit TaskCreated(length, block.timestamp, _content, _author, false);\n    }\n\n    function getTask(uint256 _id)\n        public\n        view\n        taskExists(_id)\n        returns (\n            uint256,\n            uint256,\n            string memory,\n            string memory,\n            bool\n        )\n    {\n        Task memory _task = tasks[_id];\n        return (_id, _task.date, _task.content, _task.author, _task.done);\n    }\n\n    function getTaskIds() public view returns (uint256[] memory) {\n        return taskIds;\n    }\n\n    function toggleTask(uint256 _id, bool _done) public {\n        tasks[_id].done = _done;\n    }\n\n    modifier taskExists(uint256 _id) {\n        require(tasks[_id].id > 0, \"Invalid task ID. Please try again\");\n        _;\n    }\n}\n",
  "sourcePath": "/Users/muhammad797/Work/Experiment/Blockchain/Todo/contracts/ToDo.sol",
  "compiler": {
    "name": "solc",
    "version": "0.8.10+commit.fc410830.Emscripten.clang"
  },
  "schemaVersion": "3.4.3",
  "updatedAt": "2022-01-06T21:23:12.023Z",
  "networkType": "ethereum",
  "devdoc": {
    "kind": "dev",
    "methods": {},
    "version": 1
  },
  "userdoc": {
    "kind": "user",
    "methods": {},
    "version": 1
  }
}